{
  "contractName": "Evoting",
  "abi": [
    {
      "constant": false,
      "inputs": [
        {
          "internalType": "string",
          "name": "_name",
          "type": "string"
        }
      ],
      "name": "addCandidate",
      "outputs": [],
      "payable": false,
      "stateMutability": "nonpayable",
      "type": "function"
    },
    {
      "constant": false,
      "inputs": [
        {
          "internalType": "uint256",
          "name": "_candidateID",
          "type": "uint256"
        }
      ],
      "name": "vote",
      "outputs": [],
      "payable": false,
      "stateMutability": "nonpayable",
      "type": "function"
    },
    {
      "constant": true,
      "inputs": [
        {
          "internalType": "uint256",
          "name": "_id",
          "type": "uint256"
        }
      ],
      "name": "Details",
      "outputs": [
        {
          "internalType": "string",
          "name": "",
          "type": "string"
        },
        {
          "internalType": "uint256",
          "name": "",
          "type": "uint256"
        }
      ],
      "payable": false,
      "stateMutability": "view",
      "type": "function"
    },
    {
      "constant": true,
      "inputs": [],
      "name": "totalVoters",
      "outputs": [
        {
          "internalType": "uint256",
          "name": "",
          "type": "uint256"
        }
      ],
      "payable": false,
      "stateMutability": "view",
      "type": "function"
    },
    {
      "constant": true,
      "inputs": [
        {
          "internalType": "uint256",
          "name": "_candidateID",
          "type": "uint256"
        }
      ],
      "name": "getResult",
      "outputs": [
        {
          "internalType": "uint256",
          "name": "",
          "type": "uint256"
        }
      ],
      "payable": false,
      "stateMutability": "view",
      "type": "function"
    },
    {
      "constant": true,
      "inputs": [],
      "name": "sender",
      "outputs": [
        {
          "internalType": "address",
          "name": "",
          "type": "address"
        }
      ],
      "payable": false,
      "stateMutability": "view",
      "type": "function"
    },
    {
      "constant": true,
      "inputs": [
        {
          "internalType": "uint256",
          "name": "_candidateID",
          "type": "uint256"
        }
      ],
      "name": "getName",
      "outputs": [
        {
          "internalType": "string",
          "name": "",
          "type": "string"
        }
      ],
      "payable": false,
      "stateMutability": "view",
      "type": "function"
    }
  ],
  "bytecode": "0x608060405234801561001057600080fd5b5061071b806100206000396000f3fe608060405234801561001057600080fd5b506004361061007d5760003560e01c806367e404ce1161005b57806367e404ce146101895780636b8ff574146101d3578063995e43391461027a578063b6c748d9146102bc5761007d565b80630121b93f14610082578063462e91ec146100b05780635f5300ff1461016b575b600080fd5b6100ae6004803603602081101561009857600080fd5b810190808035906020019092919050505061036a565b005b610169600480360360208110156100c657600080fd5b81019080803590602001906401000000008111156100e357600080fd5b8201836020820111156100f557600080fd5b8035906020019184600183028401116401000000008311171561011757600080fd5b91908080601f016020809104026020016040519081016040528093929190818152602001838380828437600081840152601f19601f820116905080830192505050505050509192919290505050610405565b005b610173610481565b6040518082815260200191505060405180910390f35b61019161048b565b604051808273ffffffffffffffffffffffffffffffffffffffff1673ffffffffffffffffffffffffffffffffffffffff16815260200191505060405180910390f35b6101ff600480360360208110156101e957600080fd5b8101908080359060200190929190505050610493565b6040518080602001828103825283818151815260200191508051906020019080838360005b8381101561023f578082015181840152602081019050610224565b50505050905090810190601f16801561026c5780820380516001836020036101000a031916815260200191505b509250505060405180910390f35b6102a66004803603602081101561029057600080fd5b810190808035906020019092919050505061054b565b6040518082815260200191505060405180910390f35b6102e8600480360360208110156102d257600080fd5b810190808035906020019092919050505061056b565b6040518080602001838152602001828103825284818151815260200191508051906020019080838360005b8381101561032e578082015181840152602081019050610313565b50505050905090810190601f16801561035b5780820380516001836020036101000a031916815260200191505b50935050505060405180910390f35b60008111801561037c57506002548111155b61038557600080fd5b600160008281526020019081526020016000206002016000815480929190600101919050555060016000803373ffffffffffffffffffffffffffffffffffffffff1673ffffffffffffffffffffffffffffffffffffffff16815260200190815260200160002060006101000a81548160ff02191690831515021790555050565b600260008154809291906001019190505550604051806060016040528060025481526020018281526020016000815250600160006002548152602001908152602001600020600082015181600001556020820151816001019080519060200190610470929190610641565b506040820151816002015590505050565b6000600254905090565b600033905090565b6060600160008381526020019081526020016000206001018054600181600116156101000203166002900480601f01602080910402602001604051908101604052809291908181526020018280546001816001161561010002031660029004801561053f5780601f106105145761010080835404028352916020019161053f565b820191906000526020600020905b81548152906001019060200180831161052257829003601f168201915b50505050509050919050565b600060016000838152602001908152602001600020600201549050919050565b60606000600160008481526020019081526020016000206001016001600085815260200190815260200160002060020154818054600181600116156101000203166002900480601f0160208091040260200160405190810160405280929190818152602001828054600181600116156101000203166002900480156106315780601f1061060657610100808354040283529160200191610631565b820191906000526020600020905b81548152906001019060200180831161061457829003601f168201915b5050505050915091509150915091565b828054600181600116156101000203166002900490600052602060002090601f016020900481019282601f1061068257805160ff19168380011785556106b0565b828001600101855582156106b0579182015b828111156106af578251825591602001919060010190610694565b5b5090506106bd91906106c1565b5090565b6106e391905b808211156106df5760008160009055506001016106c7565b5090565b9056fea265627a7a723158201776ce45db65b0c1eecd5025f496988d538349a9b35f86a1bbf374ef501abfad64736f6c63430005100032",
  "source": "pragma solidity >=0.5.16;\n\n\ncontract Evoting{\n\t//store candidates\n\tstruct Candidate{\n\t\tuint id;\n\t\tstring name;\n\t\tuint voteCount;\n\t}\n\n\tmapping(address => bool) private votedList;\n\tmapping(uint => Candidate) private candidate;\n\n\tuint private candidateCount;\n    \n\n    // modifier OnlyIfNotVoted{\n    //     require(\n    //     \tvotedList[msg.sender] == false,\n    //     \t\"Sorry! You have already voted\"\n    //     \t);\t\t\t\t// you can use throw instead;\n    //     \t_;\n    // }\n\t\n\t// function addcandidate() public\n\t// \t{\n\t// \t\taddCandidate(\"Sunil Khadka\");\n\t// \t\taddCandidate(\"Doleshor Khadka\");\n\t// \t}\n\tfunction addCandidate\n\t\t(\n\t\t\tstring memory _name\n\t\t) \n\t\t\tpublic \n\t\t{\n\t\t\tcandidateCount ++;\n\t\t\tcandidate[candidateCount] = Candidate(candidateCount,_name,0);\n\t\t}\t\n\n\tfunction vote(uint _candidateID) public {\n\t\t// Checking wether the voter has already voted or not .\n\t\t// require(\n        // \tvotedList[msg.sender] == false //or you can also use !votedList[msg.sender] for condition\n        // \t//\"Sorry! You have already voted\"\n        // ); \n\n        // Checking the candidate is a valid\n        require(\n        \t_candidateID >0 && _candidateID <=candidateCount\n        \t//\"Invalid candidate\"\n        );\n\n\t\t// update candidate vote count\n\t\tcandidate[_candidateID].voteCount ++;\n\t\tvotedList[msg.sender] = true;\n\t}\n\tfunction Details(uint _id) public view returns(string memory , uint){\n\t\treturn (candidate[_id].name ,candidate[_id].voteCount);\n\t}\n\tfunction totalVoters() public view returns(uint){\n\t\treturn candidateCount;\n\t} \n\tfunction getResult(uint _candidateID) public view returns(uint){ \n\t\treturn (candidate[_candidateID].voteCount);\n\t}\n\tfunction sender() public view returns(address){\n\t\treturn (msg.sender);\n\t}\n\tfunction getName(uint _candidateID) public view returns(string memory ){\n\t\treturn (candidate[_candidateID].name);\n\t}\n}",
  "sourcePath": "/home/Bing0/Documents/7thSemProject/PythonImplementation/EvotingSystem/contracts/Echunab.sol",
  "compiler": {
    "name": "solc",
    "version": "0.5.16+commit.9c3226ce.Emscripten.clang"
  },
  "schemaVersion": "3.4.1",
  "updatedAt": "2021-10-31T20:09:13.218Z",
  "networkType": "ethereum",
  "devdoc": {
    "methods": {}
  },
  "userdoc": {
    "methods": {}
  }
}